:020000040800F2
:1000000000500020F13700087D3700087F370008D6
:10001000813700088337000885370008000000009A
:10002000000000000000000000000000873700080A
:1000300089370008000000008B3700088D37000862
:1000400039380008393800083938000839380008CC
:1000500039380008393800083938000839380008BC
:1000600039380008393800083938000839380008AC
:10007000393800083938000839380008393800089C
:10008000393800083938000839380008393800088C
:100090009537000839380008393800083938000821
:1000A000393800083938000839380008393800086C
:1000B000393800083938000839380008393800085C
:1000C000393800083938000839380008393800084C
:1000D000393800083938000839380008393800083C
:1000E00039380008393800083938000800000000A5
:1000F0000000000000000000000000000000000000
:0C01000000000000000000005FF808F1A3
:10010C0010B5054C237833B9044B13B10448AFF345
:10011C0000800123237010BD80010020000000002E
:10012C001C3A000808B5034B1BB103490348AFF355
:10013C00008008BD00000000840100201C3A00086B
:10014C00034613F8012B002AFBD1181A013870470B
:10015C0008B500220F49104802F0FCF870B90F499D
:10016C000D4802F00EF960B90D490B4802F00FFF73
:10017C0050B9094802F00CF948B908BD03F0DBFB93
:10018C00EDE703F0D8FBEFE703F0D5FBF1E703F065
:10019C00D2FBF2E7000000202807002068000020B6
:1001AC005000002012230B80004870471C000020D8
:1001BC0004230B800048704730000020002393423A
:1001CC0017D230B40BE0373401F8134000015C0057
:1001DC00013400250D550133DBB2934207D2040FD5
:1001EC00B0F1204FEFD2303401F81340EEE730BCC1
:1001FC007047704738B50A4B186804331C680433D1
:10020C001B68C01800D138BD064D0822A91CFFF789
:10021C00D5FF042205F112012046FFF7CFFFF2E7CC
:10022C00E8F7FF1F3400002008B51A230B80FFF7F6
:10023C00E1FF014808BD00BF3400002008B50A46A4
:10024C0028B90549054802F0FAFC034808BD0249E3
:10025C00024802F0F4FCF8E7EC090020343A0008FC
:10026C0010B50A46034C2146034802F0E8FC204630
:10027C0010BD00BFEC0900204C3A000808B50A4636
:10028C0028B90549054802F0DAFC034808BD0249C3
:10029C00024802F0D4FCF8E7EC090020603A0008B0
:1002AC0008B50A4628B90549054802F0C8FC0348B8
:1002BC0008BD0249024802F0C2FCF8E7EC09002034
:1002CC006C3A0008002070470020704738B504468F
:1002DC00098803F039FB054D2146284602F066FEDD
:1002EC00284602F083FE002038BD00BF28070020FE
:1002FC0010B5064C00220649204602F04FFE054977
:10030C00204602F053FE002010BD00BF280700203D
:10031C00D40F0020EC0B0020094BD3F8B832D3F8E3
:10032C0014320BB10120704710B5054C0A4601463A
:10033C00204602F033FE204602F03EFE10BD00BF08
:10034C0028070020022805D8DFE800F00504020089
:10035C00012070470220704702680E4B9A4200D071
:10036C00704700B583B003F5DA33DA6942F4000262
:10037C00DA61DB6903F400030193019B002211464F
:10038C00142001F08FFF142001F0C0FF03B05DF8C2
:10039C0004FB00BF005C004008B500F50C71D0F800
:1003AC00680202F00DF808BD08B500EB4113D3F854
:1003BC003C21D0F8680202F030F808BD08B500EB1B
:1003CC004113DA6BD0F8680202F06DF808BD08B57D
:1003DC00D0F8680202F00EF908BD10B50446836827
:1003EC00022B09D10121D4F8680202F0ECF8D4F800
:1003FC00680202F0C0F810BD03F09DFAF2E70000AD
:10040C0010B50446D0F8680202F0E0F8A36923B1F5
:10041C00024A136943F00603136110BD00ED00E0BE
:10042C0008B5D0F8680202F0DAF808BD10B5044639
:10043C001D48C0F86842C4F8C0021C4B0360082376
:10044C0043600223836000238361C361036200F075
:10045C0091F830BB182300221146D4F8C00200F0EA
:10046C00CBFC582300228021D4F8C00200F0C4FC3D
:10047C00C02300228121D4F8C00200F0BDFC4FF44F
:10048C00887300220121D4F8C00200F0B5FC4FF4AF
:10049C00807300228221D4F8C00200F0ADFC002051
:1004AC0010BD03F048FAD5E7BC130020005C0040F7
:1004BC0008B5D0F8C00200F0D7F8FFF743FF08BD2D
:1004CC0010B514461A462346D0F8C00200F0F7F8CF
:1004DC00FFF738FF10BD08B5D0F8C00200F027F9BF
:1004EC00FFF730FF08BD08B5D0F8C00200F016FCCD
:1004FC00FFF728FF08BD08B5D0F8C00200F045FC96
:10050C00FFF720FF08BDD0F8C03211F0800F06D1E4
:10051C0001F07F0103EB411191F82A01704701F0C2
:10052C007F0103EB411191F82A00704708B5D0F810
:10053C00C00200F0B0F8FFF705FF08BD08B5D0F811
:10054C00C00200F049F9FFF7FDFE08BD08B5D0F870
:10055C00C00200F01AF9FFF7F5FE08BD08B5D0F897
:10056C00C00200F032F908BD004870479C01002021
:10057C0070477047F0B587B0002873D0054690F8E7
:10058C002932DBB1032385F82932286800F05CFCA2
:10059C002C4654F8107B6E460FCC0FC62368336084
:1005AC002B1D0ECB384600F03FFC044658B10223FD
:1005BC0085F829320124204607B0F0BD80F8283296
:1005CC00FFF7CAFEDEE70021286800F047FC23464F
:1005DC0011E005EB4312012182F8291082F8283032
:1005EC00D386002182F82B109163D1639A1C52019F
:1005FC00A9500133DBB269688B42EAD312E005EBF8
:10060C004412002382F8293182F8284182F82B31D8
:10061C00C2F83831C2F83C3104F10A025201AB5035
:10062C000134E4B2A142EAD82C4654F8107B6E4651
:10063C000FCC0FC6236833602B1D0ECB384600F051
:10064C000FFC044620B1022385F829320124B2E7BD
:10065C00002385F82430012385F82932286800F01E
:10066C0038FFA8E70124A6E790F82832012B10D018
:10067C0010B50446012180F82812FFF77AFF206894
:10068C0000F025FF206800F0D6FB002084F828023B
:10069C0010BD0220704790F82832012B0DD010B5F8
:1006AC000446012380F8283280F82410006800F0FA
:1006BC0008FF002084F8280210BD0220704770B596
:1006CC0005460C4611F0800F21D101F007004001C6
:1006DC0000F5947129442844002680F8296104F01F
:1006EC0007040C700A61CB704A7802B1CC81022BE2
:1006FC0018D095F82832012B17D0012385F8283211
:10070C00286800F0C3FB002085F8280270BD01F0BA
:10071C000700400100F1280129442844012680F8F3
:10072C002960DCE700230B71E3E70220EEE710B54C
:10073C0004460B4611F0800F1AD101F0070252014A
:10074C0002F5947101440244002082F8290103F05F
:10075C0007030B7094F82832012B14D0012384F872
:10076C002832206800F04DFD002084F8280210BDCE
:10077C0001F00702520102F1280101440244012058
:10078C0082F82900E3E70220F1E770B501F00704D5
:10079C00650105F5947101440544C5F83C2104F14B
:1007AC000A02560100EB421283510023536085F874
:1007BC00293185F8284124B9006800F0A5FE0020F5
:1007CC0070BD006800F0A0FEF9E701F007010A31E6
:1007DC0000EB41114868704770B501F007046501E2
:1007EC0005F1280101440544EA63A21C560100EB03
:1007FC004212835100235360012385F8293085F878
:10080C00284024B9006800F07FFE002070BD00680D
:10081C0000F07AFEF9E7F8B50546ADE003889BB227
:10082C0023F4E14323F070036FEA43436FEA53432D
:10083C009BB203802A68B2F850309BB295F828100E
:10084C0003EBC103023302EB4303B3F80034C3F3ED
:10085C0009036B64EA6B1344EB6300212846FFF732
:10086C00ADFD95F82430002B00F086802B6C002B0E
:10087C0040F0828095F824302A6843F08003A2F877
:10088C004C30002385F8243076E0B0F850309BB221
:10089C0095F8282103EBC203063300EB4303B3F8AE
:1008AC000034C3F30903C5F84431B5F82E2105F51E
:1008BC000C7100F0D2FF2A68138823F070031B051B
:1008CC001B0D43F0800313802846FFF765FD53E0B2
:1008DC003E2A09D8510812F0010F00D001318902CB
:1008EC0089B2A3F80C14A8E0510912F01F0F00D123
:1008FC0001396FEAC1626FEA524292B2A3F80C243A
:10090C009BE030F824309FB213F4004F40F0A480E9
:10091C0017F0800F30D02A6832F824309BB223F4C1
:10092C00E14323F070036FEA43436FEA53439BB2F6
:10093C0022F824302A68B2F850309BB205EB4411EF
:10094C0091F8280003EBC003023302EB4303B3F826
:10095C000024C2F30902A31C580105EB43135A608F
:10096C00CB6B1A44CA632B58002B40F0128191F8C0
:10097C0028102846FFF722FD2868B0F8443013F4FD
:10098C00004F00F00E81B0F84440A3B214F00F04F5
:10099C00B7D113F0100F3FF441AF03889AB213F4A0
:1009AC00006F7FF472AF12F4004FE5D0038823F090
:1009BC0070031B051B0D43F0800303802868B0F8FF
:1009CC0050309BB295F8282103EBC203063300EBA1
:1009DC004303B3F80034C3F30903C5F844318BB1B6
:1009EC00D5F83C1171B1B5F82E2100F036FFD5F8D1
:1009FC004421D5F83C311344C5F83C31002128463C
:100A0C00FFF7D2FC2A68B2F850309BB21344D5F8E9
:100A1C003821002A7FF45CAFB3F80C2492B222F494
:100A2C00F84292B2A3F80C24B3F80C246FEA4242B9
:100A3C006FEA524292B2A3F80C242A6813889BB234
:100A4C0023F4804323F0700383F4405343F40043B6
:100A5C0043F0800313808FE730F8243023F07003C9
:100A6C001B051B0D43F0800320F8243005EB4413C9
:100A7C0093F83431DBB92868B0F850309BB205EBF1
:100A8C00441292F8282103EBC203063300EB430314
:100A9C00B3F80064C6F3090696B305EB441133466C
:100AAC00B1F82E21D1F83C1100F0D7FE28E02868CF
:100ABC0005EB441393F8282130F8223013F4804FBF
:100ACC0047D0B0F850309BB203EBC203023300EBBB
:100ADC004303B3F80064C6F3090686BB2A6805EB2A
:100AEC00441393F8281132F821309BB223F4E043DD
:100AFC0023F0700343F4004343F0C00322F8213089
:100B0C0004F10A03590105EB43135A6832445A6045
:100B1C0005EB4413D3F83C213244C3F83C216B5809
:100B2C002BB105EB4411D1F838118E4229D205EBCB
:100B3C00441393F828112846FFF736FCE8E605EB3A
:100B4C0044113346B1F83021D1F83C1100F085FE48
:100B5C00C4E7B0F850309BB203EBC203063300EB92
:100B6C004303B3F80064C6F30906002EB6D005EBB8
:100B7C0044113346B1F83221D1F83C1100F06DFE2E
:100B8C00ACE705EB441191F828112846FFF7FDFD61
:100B9C00BEE605EB441494F828102846FFF71CFE1B
:100BAC00EAE60020F8BD10B50446006800F093FC9E
:100BBC0010F4004F45D1206800F08DFC10F4806FCC
:100BCC0043D1206800F087FC10F4804F08D02268D5
:100BDC00B2F844309BB223F480439BB2A2F8443069
:100BEC00206800F078FC10F4005F08D02268B2F89E
:100BFC0044309BB223F400539BB2A2F844302068DB
:100C0C0000F069FC10F4805F30D1206800F063FCC8
:100C1C0010F4006F49D1206800F05DFC10F4007FE7
:100C2C006FD1206800F057FC10F4807F08D0226848
:100C3C00B2F844309BB223F480739BB2A2F84430D8
:100C4C0010BD2046FFF7E7FDB5E72268B2F8443047
:100C5C009BB223F480639BB2A2F844302046FFF78A
:100C6C00BCFB00212046FFF716FDAAE72268B2F86C
:100C7C0040309BB223F004039BB2A2F840302268B0
:100C8C00B2F840309BB223F008039BB2A2F840307C
:100C9C002046FFF7C5FB2268B2F844309BB223F420
:100CAC0080539BB2A2F84430AFE72268B2F84030D0
:100CBC009BB243F00803A2F840302268B2F84430EB
:100CCC009BB223F400639BB2A2F844302268B2F8C2
:100CDC0040309BB243F00403A2F84030206800F08F
:100CEC00FAFB10F4805F08D02268B2F844309BB253
:100CFC0023F480539BB2A2F844302046FFF780FBCC
:100D0C0089E72268B2F844309BB223F400739BB29B
:100D1C00A2F844302046FFF75AFB82E738B501F0C1
:100D2C00070543689D422CD8044611F0800F19D159
:100D3C004B0103F5947101440344002283F82921EB
:100D4C0001238B700D7094F82832012B1BD00123DA
:100D5C0084F82832206800F03EFB65B1002084F84E
:100D6C00280238BD6B0103F1280101440344012220
:100D7C0083F82920E4E704F50C71206800F0AFFB40
:100D8C00ECE70120EDE70220EBE70B4601F00F0149
:100D9C00426891422CD810B5044613F0800F1CD138
:100DAC0003F00702520102F5947101440244002041
:100DBC0082F8290100228A7003F007030B7094F863
:100DCC002832012B16D0012384F82832206800F039
:100DDC0027FB002084F8280210BD03F00702520103
:100DEC0002F1280101440244012082F82900E1E7C4
:100DFC00012070470220EFE711F0800F09D001F0BD
:100E0C00070149012831014442B90A73CB80002003
:100E1C007047490101F594710144F5E701220A7309
:100E2C000B811B0C4B81F2E784B001A880E80E000B
:100E3C00002004B07047B0F840309BB243F43F43FD
:100E4C00A0F8403000207047B0F8403023F47C53B9
:100E5C005B045B0CA0F8403000207047002070470A
:100E6C0084B038B505AD85E80E000123A0F84030FC
:100E7C000025A0F84050A0F84450A0F85050FFF7BF
:100E8C00DAFF2846BDE8384004B0704730B403465A
:100E9C000C7830F8242092B222F4EC4222F070024A
:100EAC0092B2C87803285AD8DFE800F04E550251A8
:100EBC00002048F280052A4323F824200C7833F8CC
:100ECC00242092B222F4E04222F0700222432A4300
:100EDC0023F824200A7B002A40F0B6804A78002AA6
:100EEC004ED0B3F8502092B21A440C7802EB041294
:100EFC00CC8864086400A2F800440C7833F82420F1
:100F0C0012F0400F0CD033F8242092B222F4E042BD
:100F1C0022F0700242F4004242F0C00223F8242076
:100F2C00CA78012A1DD0097833F8212092B222F414
:100F3C00E04222F0400282F0200242F4004242F0F1
:100F4C00800223F8212064E042F40072B1E742F4FD
:100F5C00C0620020ADE742F480620020A9E70120C6
:100F6C00A7E7097833F8212092B222F4E04222F06C
:100F7C00400242F4004242F0800223F8212048E073
:100F8C00B3F8502092B21A440C7802EB0412CC88BD
:100F9C0064086400A2F80844B3F8502092B21A44D2
:100FAC000C7802EB04120C69ACBBB2F80C44A4B282
:100FBC0024F4F844A4B2A2F80C44B2F80C446FEA3E
:100FCC0044446FEA5444A4B2A2F80C440C7833F8AD
:100FDC00242012F4804F0CD033F8242092B222F447
:100FEC00E04222F0700242F4404242F0800223F8C8
:100FFC002420097833F8212092B222F4804222F086
:10100C00700282F4405242F4004242F0800223F813
:10101C00212030BC70473E2C09D8650814F0010F14
:10102C0000D00135AD02ADB2A2F80C54CEE7650983
:10103C0014F01F0F00D1013D6FEAC5646FEA5444F0
:10104C00A4B2A2F80C44C1E70C7833F8242092B275
:10105C0022F4E04222F0700242F4014242F080029B
:10106C0023F82420B3F8502092B21A440C7802EBE7
:10107C0004120C8964086400A2F80044B3F85020F0
:10108C0092B21A440C7802EB04124C896408640086
:10109C00A2F808444A78002A4ED10C7833F8242060
:1010AC0012F4804F0CD033F8242092B222F4E04298
:1010BC0022F0700242F4404242F0800223F82420D5
:1010CC000C7833F8242012F0400F0CD033F8242085
:1010DC0092B222F4E04222F0700242F4004242F05A
:1010EC00C00223F824200C7833F8242092B222F486
:1010FC00E04222F0700242F4004242F0C00223F8B7
:10110C0024200D7833F8252092B222F4804222F06C
:10111C00700282F4405248F28004224323F82520C6
:10112C00097833F8212092B222F4E04222F04002F6
:10113C00224323F821206CE70C7833F8242012F496
:10114C00804F0CD033F8242092B222F4E04222F0EB
:10115C00700242F4404242F0800223F824200C78C2
:10116C0033F8242012F0400F0CD033F8242092B224
:10117C0022F4E04222F0700242F4004242F0C0023B
:10118C0023F824200C7833F8242092B222F4E04285
:10119C0022F0700242F4404242F0800223F82420F4
:1011AC00CA78012A1ED00C7833F8242092B222F48B
:1011BC00E04222F0400282F0200242F4004242F06F
:1011CC00800223F82420097833F8212092B222F4EB
:1011DC00804222F0700242F4004242F0800223F876
:1011EC00212016E70C7833F8242092B222F4E04246
:1011FC0022F0400242F4004242F0800223F8242004
:10120C00E1E70B7B002B46D14B7813B30A7830F80F
:10121C00223013F0400F0CD030F822309BB223F464
:10122C00E04323F0700343F4004343F0C00320F881
:10123C0022300A7830F822309BB223F4E04323F0BA
:10124C00400343F4004343F0800320F82230002095
:10125C0070470A7830F8223013F4804F0CD030F8F5
:10126C0022309BB223F4E04323F0700343F4404359
:10127C0043F0800320F822300A7830F822309BB2F9
:10128C0023F4804323F0700343F4004343F08003C2
:10129C0020F82230DBE710B44B78002B4ED10A78C3
:1012AC0030F8223013F4804F0CD030F822309BB23F
:1012BC0023F4E04323F0700343F4404343F08003F2
:1012CC0020F822300A7830F8223013F0400F0CD07E
:1012DC0030F822309BB223F4E04323F0700343F444
:1012EC00004343F0C00320F822300A7830F8223053
:1012FC009BB223F4E04323F0700343F4004343F028
:10130C00C00320F822300B7830F8232092B222F45C
:10131C00804222F0700248F28004224320F82320FD
:10132C000A7830F822309BB223F4E04323F04003D8
:10133C00234320F82230002010BC70470A7830F884
:10134C00223013F4804F0CD030F822309BB223F4AF
:10135C00E04323F0700343F4404343F0800320F850
:10136C0022300A7830F8223013F0400F0CD030F8CD
:10137C0022309BB223F4E04323F0700343F4004388
:10138C0043F0C00320F822300A7830F822309BB2A8
:10139C0023F4E04323F0700343F4404343F0800311
:1013AC0020F822300B7830F8232092B222F4E0425D
:1013BC0022F0400248F28004224320F823200A78CD
:1013CC0030F822309BB223F4804323F07003234384
:1013DC0020F82230AFE74B788BB10A7830F8223006
:1013EC009BB223F4E04323F0400383F0100343F457
:1013FC00004343F0800320F82230002070470A7825
:10140C0030F822309BB223F4804323F0700383F432
:10141C00805343F4004343F0800320F82230ECE780
:10142C000B7B002B4BD14B7833B30A7830F822303E
:10143C0013F0400F0CD030F822309BB223F4E04371
:10144C0023F0700343F4004343F0C00320F8223030
:10145C00CB78012B33D00A7830F822309BB223F4AE
:10146C00E04323F0400383F0200343F4004343F0B4
:10147C00800320F8223022E00A7830F8223013F46E
:10148C00804F0CD030F822309BB223F4E04323F091
:10149C00700343F4404343F0800320F822300A7871
:1014AC0030F822309BB223F4804323F0700383F492
:1014BC00405343F4004343F0800320F822300020D3
:1014CC00704711B98023A0F84C30002070470020E1
:1014DC00704700207047B0F8440080B2704700207D
:1014EC00704710B45C1C640800EB420202F5806289
:1014FC0044B10B78487843EA002322F8043B0231CC
:10150C00013CF5E710BC704770B505460C464978B0
:10151C00012937D0A26923699A4240F20A81D21A72
:10152C00A261227B002A40F02181B5F8502092B2B2
:10153C002A44217802EB0112002B40F0FE80B2F815
:10154C000C349BB223F4F8439BB2A2F80C34B2F8DF
:10155C000C346FEA43436FEA53439BB2A2F80C344A
:10156C00227835F822309BB223F4804323F07003A9
:10157C0083F4405343F4004343F0800325F82230B6
:10158C00002070BDA26923699A4224D9D21AA261A3
:10159C00227B22B3227835F8220010F0400F79D04C
:1015AC00002946D1B5F8501089B2294401EB02123A
:1015BC0033BBB2F80C1489B221F4F84189B2A2F809
:1015CC000C14B2F80C146FEA41416FEA514189B224
:1015DC00A2F80C1436E00023A3611346D8E79EB2A0
:1015EC003346E28861692846FFF77BFFB5F8503037
:1015FC009BB22B44227803EB0213A3F8046438E06B
:10160C003E2B09D8590813F0010F00D00131890283
:10161C0089B2A2F80C1415E0590913F01F0F00D170
:10162C0001396FEAC1616FEA514189B2A2F80C1419
:10163C0008E0B5F8501089B2294401EB021299B2B6
:10164C00A2F80C1462899BB261692846FFF749FF26
:10165C006378002B5CD1227835F822309BB223F4CE
:10166C00E04323F0700343F4004343F0C00325F838
:10167C002230227835F822309BB223F4E04323F059
:10168C00400383F0300343F4004343F0800325F818
:10169C00223075E789BBB5F8501089B2294401EBAB
:1016AC0002128BB9B2F8041489B221F4F84189B250
:1016BC00A2F80414B2F804146FEA41416FEA5141E4
:1016CC0089B2A2F8041421E03E2B09D8590813F072
:1016DC00010F00D00131890289B2A2F8041415E07F
:1016EC00590913F01F0F00D101396FEAC1616FEA7C
:1016FC00514189B2A2F8041408E0B5F8501089B22F
:10170C00294401EB021299B2A2F8041422899AE737
:10171C00012BAED1227835F822309BB223F4E04372
:10172C0023F0700343F4404343F0800325F8223048
:10173C009FE70023A3611346F3E63E2B09D8590813
:10174C0013F0010F00D00131890289B2A2F80C14F8
:10175C0006E7590913F01F0F00D101396FEAC16177
:10176C006FEA514189B2A2F80C14F9E6C1B9B5F887
:10177C00502092B22A44217802EB01126BBBB2F8D2
:10178C00041489B221F4F84189B2A2F80414B2F815
:10179C0004146FEA41416FEA514189B2A2F8041472
:1017AC006278002A4BD1B5F8502092B22A442178A5
:1017BC0002EB011253BBB2F80C349BB223F4F84386
:1017CC009BB2A2F80C34B2F80C346FEA43436FEAC4
:1017DC0053439BB2A2F80C34C2E63E2B09D85908ED
:1017EC0013F0010F00D00131890289B2A2F8041460
:1017FC00D6E7590913F01F0F00D101396FEAC16107
:10180C006FEA514189B2A2F80414C9E73E2B09D8FA
:10181C00590813F0010F00D00131890289B2A2F8E6
:10182C000C149DE6590913F01F0F00D101396FEA12
:10183C00C1636FEA53439BB2A2F80C3490E6012AC1
:10184C007FF48EAEB5F8502092B22A44217802EB88
:10185C0001129BB2A2F80C3482E610B45C0800EBC7
:10186C00420000F5806044B130F8042B0A70C2F3DA
:10187C0007224A700231013CF5E713F0010F01D049
:10188C0003880B7010BC704710B504460E4B1878CB
:10189C004FF47A73B3FBF0F30C4A1068B0FBF3F01F
:1018AC0000F042FD68B90F2C01D901200AE000229A
:1018BC0021464FF0FF3000F0F5FC054B1C6000207A
:1018CC0000E0012010BD00BF600000207C01002062
:1018DC006400002008B5074A136843F01003136036
:1018EC00032000F0CDFC0020FFF7CEFF01F028FF15
:1018FC00002008BD00200240034A1168034B1B78EE
:10190C000B441360704700BF2816002060000020B5
:10191C00014B1868704700BF2816002082B0084B96
:10192C001B68084AA2FB03235B0A00FB03F3019329
:10193C0000BF019B5A1E0192002BF9D102B07047D7
:10194C007C010020D34D6210002800F0F18170B5AD
:10195C0082B00446036813F0010F2CD0AA4B5B68CD
:10196C0003F00C03042B1DD0A74B5B6803F00C0396
:10197C00082B12D06368B3F5803F41D0002B55D1B2
:10198C0003F1804303F504331A6822F480321A60A1
:10199C001A6822F480221A6037E09B4B5B6813F4C0
:1019AC00803FE7D0984B1B6813F4003F03D063686B
:1019BC00002B00F0BF81236813F0020F75D0924BFF
:1019CC005B6813F00C0F5FD08F4B5B6803F00C035C
:1019DC00082B54D02369002B00F089808B4B0122FB
:1019EC001A60FFF795FF0546874B1B6813F0020F33
:1019FC0074D1FFF78DFF401B0228F5D903209EE11F
:101A0C00814A136843F480331360636843B3FFF770
:101A1C007FFF05467C4B1B6813F4003FCBD1FFF7CF
:101A2C0077FF401B6428F5D9032088E1B3F5A02F7C
:101A3C0009D0754B1A6822F480321A601A6822F4A5
:101A4C0080221A60E1E703F18043A3F53C331A6866
:101A5C0042F480221A601A6842F480321A60D4E789
:101A6C00FFF756FF0546684B1B6813F4003FA2D0E6
:101A7C00FFF74EFF401B6428F5D903205FE1624B52
:101A8C005B6813F4803FA5D15F4B1B6813F0020F0A
:101A9C0003D02369012B40F04F815B4A136823F07C
:101AAC00F803616943EAC1031360236813F0080F5C
:101ABC0032D0A369002B45D0554B01221A60FFF799
:101ACC0027FF0546504B5B6A13F0020F21D1FFF73D
:101ADC001FFF401B0228F5D9032030E14A4A136846
:101AEC0023F0F803616943EAC1031360DDE7474B58
:101AFC0000221A60FFF70CFF0546434B1B6813F0DE
:101B0C00020FD2D0FFF704FF401B0228F5D90320A7
:101B1C0015E10120FFF702FF236813F0040F00F01A
:101B2C009780394BDB6913F0805F1DD1364BDA6936
:101B3C0042F08052DA61DB6903F080530193019B20
:101B4C00012512E0324B00221A60FFF7E1FE054638
:101B5C002D4B5B6A13F0020FDED0FFF7D9FE401B52
:101B6C000228F5D90320EAE000252A4B1B6813F460
:101B7C00807F11D0E368012B22D0002B38D103F1E8
:101B8C00804303F504331A6A22F001021A621A6ABE
:101B9C0022F004021A6218E01E4A136843F48073A0
:101BAC001360FFF7B5FE06461A4B1B6813F4807FD3
:101BBC00E0D1FFF7ADFE801B6428F5D90320BEE011
:101BCC00114A136A43F001031362E36873B3FFF71E
:101BDC009FFE06460C4B1B6A13F0020F37D1FFF722
:101BEC0097FE801B41F288339842F3D90320A6E07C
:101BFC00052B11D0044B1A6A22F001021A621A6AE0
:101C0C0022F004021A62E0E7001002400000424297
:101C1C0080044242007000404D4B1A6A42F00402AC
:101C2C001A621A6A42F001021A62CEE7FFF770FEDE
:101C3C000646474B1B6A13F0020F08D0FFF768FEED
:101C4C00801B41F288339842F3D9032077E0E5B941
:101C5C00E369002B72D03E4A526802F00C02082A4B
:101C6C0056D0022B17D03B4B00221A60FFF750FEC8
:101C7C000446374B1B6813F0007F47D0FFF748FE34
:101C8C00001B0228F5D9032059E0314AD36923F00F
:101C9C008053D361DCE72F4B00221A60FFF738FE2C
:101CAC0005462B4B1B6813F0007F06D0FFF730FE68
:101CBC00401B0228F5D9032041E0236AB3F5803F8D
:101CCC001AD023494B6823F47413226A606A0243C6
:101CDC0013434B601F4B01221A60FFF719FE044699
:101CEC001B4B1B6813F0007F0ED1FFF711FE001B7E
:101CFC000228F5D9032022E0154A536823F4003357
:101D0C00A1680B435360DCE7002018E0002016E0CC
:101D1C00012B16D00E4B5B6803F48031226A914282
:101D2C0011D103F47013626A93420ED1002006E0C5
:101D3C0001207047012002E0012000E0002002B0E9
:101D4C0070BD0120FBE70120F9E70120F7E700BF98
:101D5C00001002406000424286B0164B0FCB0DF1D2
:101D6C00180C0CE90F0040F20123ADF80430124BB3
:101D7C005B6803F00C02082A02D0104806B07047CA
:101D8C00C3F38342624412F8102C13F4803F0CD03E
:101D9C00094B5B68C3F34043634413F8143C074896
:101DAC0000FB02F0B0FBF3F0E8E7054800FB02F0A3
:101DBC00E4E700BF7C3A00080010024000127A00F1
:101DCC0000093D00002800F0A08070B50D460446C7
:101DDC00524B1B6803F007038B420BD24F4A13681C
:101DEC0023F007030B431360136803F007038B42C4
:101DFC0040F08D80236813F0020F17D013F0040FFE
:101E0C0004D0474A536843F4E0635360236813F0EB
:101E1C00080F04D0424A536843F460535360404A5D
:101E2C00536823F0F003A1680B435360236813F04D
:101E3C00010F31D06368012B20D0022B25D0384AFA
:101E4C00126812F0020F64D035494A6822F003027E
:101E5C0013434B60FFF75CFD0646314B5B6803F0A8
:101E6C000C036268B3EB820F16D0FFF751FD801B99
:101E7C0041F288339842F0D9032045E0284A126891
:101E8C0012F4003FE0D101203EE0254A126812F026
:101E9C00007FD9D1012037E0204B1B6803F00703EA
:101EAC00AB420AD91D4A136823F007032B43136076
:101EBC00136803F00703AB422DD1236813F0040F12
:101ECC0006D0174A536823F4E063E1680B43536070
:101EDC00236813F0080F07D0114A536823F460539A
:101EEC00216943EAC1035360FFF736FF0C4B5B6873
:101EFC00C3F303130B4AD35CD8400B4B18600B4B4A
:101F0C001868FFF7C1FC002070BD0120704701204C
:101F1C00FAE70120F8E70120F6E700BF00200240B5
:101F2C0000100240443D00087C01002064000020A9
:101F3C0070B582B00446036813F0010F34D03E4BE9
:101F4C00DB6913F0805F47D13B4BDA6942F080527A
:101F5C00DA61DB6903F080530193019B0125374B58
:101F6C001B6813F4807F39D0334B1B6A13F4407316
:101F7C0011D0626802F440729A420CD02E4A136A55
:101F8C0023F440702E4901260E6000260E6010626C
:101F9C0013F0010F36D1284A136A23F44073616899
:101FAC000B431362002D3ED1236813F0020F06D0B1
:101FBC00214A536823F44043A1680B4353602368C0
:101FCC0013F0100F34D01C4A536823F48003E168DB
:101FDC000B43536000202CE00025C0E7174A136820
:101FEC0043F480731360FFF793FC0646134B1B6896
:101FFC0013F4807FB8D1FFF78BFC801B6428F5D9D4
:10200C00032016E0FFF784FC06460B4B1B6A13F00B
:10201C00020FC0D1FFF77CFC801B41F28833984241
:10202C00F3D9032005E0D36923F08053D361BBE7D8
:10203C00002002B070BD00BF0010024000700040D4
:10204C0040044242F0B482B000252C46A3E07F4FFE
:10205C00BB4210D007D97E4FBB420CD007F580375E
:10206C00BB4208D013E0A7F58017BB4203D007F59D
:10207C007027BB4207D18B68002B58D0012B51D055
:10208C004261082503E0A7F58017BB42F3D0FF2E71
:10209C004FD88446FF2E4FD8A200DCF800300F2713
:1020AC00974023EA070305FA02F21343CCF80030F9
:1020BC004B6813F0805F6DD0664B9A6942F0010259
:1020CC009A619B6903F001030193019BA208971C81
:1020DC00614B53F8273004F00307BF004FF00F0C8F
:1020EC000CFA07FC23EA0C0C5C4B98422AD003F543
:1020FC008063984200F08A8003F58063984200F078
:10210C00878003F5806398421AD004231BE0CD68C6
:10211C00BDE7CD680435BAE7CD680835B7E7CD68BB
:10212C000C35B4E702610825B1E70025AFE70425BB
:10213C00ADE700F1040CADE7A4F108029200ACE7A6
:10214C00032300E00023BB4043EA0C030232424F5E
:10215C0047F822304B6813F4803F5BD0404A136839
:10216C00334313604B6813F4003F59D03C4A536817
:10217C00334353604B6813F4801F57D0384A93682D
:10218C00334393604B6813F4001F55D0344AD36823
:10219C001E43D66001340B6833FA04F252D001228C
:1021AC00A24003EA020632EA0303F3D14B68122B76
:1021BC003FF64DAF122B3FF66AAF01A757F823F04D
:1021CC00832000081B210008252100083721000866
:1021DC009B2000089B2000089B2000089B200008E7
:1021EC009B2000089B2000089B2000089B200008D7
:1021FC009B2000089B2000089B2000089B200008C7
:10220C009B2000081F2100082B21000801239AE7BE
:10221C00022398E7124A136823EA06031360A1E726
:10222C000F4A536823EA06035360A3E70C4A9368EA
:10223C0023EA06039360A5E7094AD36823EA060656
:10224C00D660A7E702B0F0BC704700BF00002210B8
:10225C000000311000100240000001400008014055
:10226C00000401400AB10161704709040161704723
:10227C00C3680B4201D04161704701617047000097
:10228C00074AD36823F4E0631B041B0C000200F420
:10229C00E060034343F0BF6343F40033D360704703
:1022AC0000ED00E030B4174BDB68C3F30223C3F13D
:1022BC000704042C28BF04241D1D062D18D9033B2C
:1022CC004FF0FF3505FA04F421EA0401994005FAB0
:1022DC0003F322EA0303194300280BDB0901C9B2FB
:1022EC0000F1604000F5614080F8001330BC70478D
:1022FC000023E5E700F00F000901C9B2024B1954A5
:10230C00F4E700BF00ED00E014ED00E0002807DB6F
:10231C0000F01F02400901239340024A42F820308A
:10232C00704700BF00E100E00138B0F1807F0AD2B5
:10233C00064B5860064AF02182F823100020986062
:10234C0007221A6070470120704700BF10E000E0C0
:10235C0000ED00E098B108B50346D0F8B40210B116
:10236C000020C3F8B40209B1C3F8B012012183F8FC
:10237C009C121A701846FEF759F8002008BD02206E
:10238C00704719B1C0F8B412002070470220704792
:10239C0008B5FEF78DF8002008BD08B5D0F8B432AA
:1023AC002BB11B68984700B908BD0220FCE702203E
:1023BC00FAE708B5D0F8B4325B689847002008BD3E
:1023CC0038B5044600F52A75284600F034F9012387
:1023DC00C4F89432B4F8AE32C4F8983294F8A81217
:1023EC0001F01F03012B0ED0022B11D02BB101F0E9
:1023FC0080012046FEF777F803E02946204600F0DE
:10240C00C9FA002038BD2946204600F0F7FAF8E753
:10241C002946204600F022FBF3E738B504460D466A
:10242C0091BB1346D0F89422032A03D0052A24D05A
:10243C00084633E0D0F86011D0F8642191420DD9F0
:10244C00891AC0F860118A4206D98AB21946204608
:10245C0000F035FC284621E092B2F7E7D0F8B43210
:10246C001B691BB190F89C22032A04D0204600F073
:10247C002EFC284612E09847F8E70021C0F8941289
:10248C00FEF731F8284609E0D0F8B4329B6933B135
:10249C0090F89C22032A04D19847002038BD0220D2
:1024AC00FCE70220FAE738B504460D46002953D163
:1024BC001346D0F89422022A0CD0042A00D01AB960
:1024CC0080212046FEF70FF894F8A032012B3ED065
:1024DC00284638BD016A426A91421BD8C169B1FBDA
:1024EC00F2F302FB13132BB98A4203D8D0F89832BB
:1024FC0099421CD3D4F8B432DB681BB194F89C22FB
:10250C00032A21D080212046FDF7EDFF204600F064
:10251C00E9FBD9E78A1A026292B2194600F0B8FBBD
:10252C0000231A4619462046FEF710F8CCE7002285
:10253C00114600F0ADFB0021C4F898120B460A4678
:10254C002046FEF703F8BFE720469847DAE700235A
:10255C0084F8A0322846BCE7D0F8B4325B6933B1BA
:10256C0090F89C22032A04D198470020B1E702205E
:10257C00AFE70220ADE770B50446402300221146B8
:10258C00FDF79EFF0125C4F858514026C4F864613C
:10259C003346002280212046FDF792FFA56166623A
:1025AC0084F89C520023C4F894326360C4F8A432BB
:1025BC00D4F8B8322BB1D4F8B4325B680021204681
:1025CC009847002070BD01740020704790F89C3231
:1025DC0080F89D32042380F89C320020704790F8DC
:1025EC009C32042B01D00020704790F89D3280F86B
:1025FC009C32F8E708B590F89C32032B01D00020F0
:10260C0008BDD0F8B432DB69002BF8D09847F6E758
:10261C00034600201A781AB10130C0B20133F9E731
:10262C00704708B54B88012B00D008BDC0F8A43208
:10263C0000F04DFBF9E70B7803704B7843708B7807
:10264C00CA7803EB022343800B794A7903EB02230C
:10265C0083808B79CA7903EB0223C380704710B552
:10266C0004468021FDF73FFF00212046FDF73BFF8C
:10267C0010BD30B583B005460C460023ADF80630CE
:10268C004A88130A013B062B00F2A480DFE803F012
:10269C0004182CA2A2869300D0F8B0321B680DF15E
:1026AC000601007C9847BDF806201AB1E388002B80
:1026BC0040F09480E388002B00F09A8003B030BD8A
:1026CC00037C43B9D0F8B4329B6A0DF106009847ED
:1026DC0002234370E7E7D0F8B432DB6A0DF1060051
:1026EC00984702234370DEE7D2B2052A52D8DFE8BE
:1026FC0002F003101D2A3744D0F8B0325B6823B1C6
:10270C000DF10601007C9847CDE72146FFF7A7FFA6
:10271C00D4E7D0F8B0329B6823B10DF10601007CF0
:10272C009847C0E72146FFF79AFFC7E7D0F8B032C9
:10273C00DB6823B10DF10601007C9847B3E7214615
:10274C00FFF78DFFBAE7D0F8B0321B6923B10DF15A
:10275C000601007C9847A6E72146FFF780FFADE70E
:10276C00D0F8B0325B6923B10DF10601007C9847BB
:10277C0099E72146FFF773FFA0E7D0F8B0329B69C9
:10278C0023B10DF10601007C98478CE72146FFF739
:10279C0066FF93E72146FFF762FF8FE7037C33B9AF
:1027AC00D0F8B4325B6B0DF1060098477BE72146FD
:1027BC00FFF755FF82E7037C43B9D0F8B4321B6BAB
:1027CC000DF106009847072343706CE72146FFF78D
:1027DC0046FF73E72146FFF742FF6FE79A4228BF97
:1027EC001A46ADF806200146284600F044FA61E787
:1027FC00284600F06CFA61E738B504468B88F3B9CB
:10280C00CB88E3B94B887F2B19D803F07F0590F860
:10281C009C32032B0CD080F89E522946FDF786FE85
:10282C00204600F054FA35B1022384F89C3209E0BA
:10283C00FFF715FF06E0012384F89C3202E02046E6
:10284C00FFF70DFF38BD000038B504460D468978FA
:10285C00284B197001290ED890F89C32022B0ED0FF
:10286C00032B21D02946FFF7FAFE224B197820467C
:10287C00FFF79FFD02E02946FFF7F1FE38BD81B15D
:10288C004160032380F89C32FFF787FD022803D0B8
:10289C00204600F01CFAF1E729462046FFF7DFFE40
:1028AC00ECE700F014FAE9E789B1436899421DD0CE
:1028BC00D9B2FFF77EFD0F4B197861602046FFF708
:1028CC006CFD02280DD0204600F001FAD6E7022359
:1028DC0080F89C324160FFF76CFD204600F0F7F960
:1028EC00CCE729462046FFF7BAFEC7E700F0EFF920
:1028FC00C4E700BFBC03002008B5CB88012B0AD16C
:10290C0090F89C32022B09D9032B09D10122011D0D
:10291C0000F0B1F901E0FFF7A2FE08BD5BB213B9FC
:10292C00FFF79DFEF9E70146002341F8083F01221D
:10293C0000F0A1F9F1E708B590F89C32013B022BAD
:10294C0012D8CB88022B0CD10123C360D0F8A4324F
:10295C000BB10323C360022200F10C0100F08BF9D0
:10296C0008BDFFF77CFEFBE7FFF779FEF8E708B53B
:10297C0090F89C32013B022B09D84B88012B00D0DC
:10298C0008BD0023C0F8A43200F0A1F9F8E7FFF766
:10299C0066FEF5E708B50B7803F06003202B05D035
:1029AC00402B03D043B1FFF75AFE03E0D0F8B4320A
:1029BC009B689847002008BD4B78092B1BD8DFE893
:1029CC0003F011171A141A08051A0E0BFFF751FE13
:1029DC00F0E7FFF711FFEDE7FFF736FFEAE7FFF748
:1029EC008BFFE7E7FFF7A7FFE4E7FFF71AFEE1E746
:1029FC00FFF7BDFFDEE7FFF732FEDBE738B5054634
:102A0C000C460B7803F06003202B06D0402B04D02F
:102A1C001BB1FFF724FE002038BD95F89C32013B1A
:102A2C00022B16D82379012B0ED8D5F8B4329B681B
:102A3C00214628469847E388002BECD10028EAD1A0
:102A4C00284600F044F9E6E721462846FFF707FE42
:102A5C00E1E721462846FFF702FEDCE770B50546A4
:102A6C008B880C7804F06004202C07D0DAB2402C50
:102A7C0004D05CB1FFF7F3FD002405E0D5F8B432C7
:102A8C009B68284698470024204670BD202C09D00E
:102A9C004E78012E33D0032E0AD0002E55D0FFF7DE
:102AAC00DEFDF1E7D0F8B4329B6898470446EBE7BB
:102ABC0090F89C32022B04D0032B11D0FFF7CFFDE2
:102ACC00E2E70AB1802A03D12846FFF7C8FDDBE70D
:102ADC001146FDF708FD80212846FDF704FDD3E7DC
:102AEC004B8823B91AB1802A01D0CB881BB1284658
:102AFC0000F0EDF8C8E71146FDF7F5FCF7E790F8A4
:102B0C009C32022B04D0032B11D0FFF7A8FDBBE79E
:102B1C000AB1802A03D12846FFF7A1FDB4E711467C
:102B2C00FDF7E1FC80212846FDF7DDFCACE74B8886
:102B3C00002BA9D112F07F0F03D1284600F0C7F863
:102B4C00A2E71146FDF7D7FCF7E790F89C020228A4
:102B5C0006D0032829D02846FFF781FD344693E799
:102B6C000AB1802A13D113F0800F15D102F07F0225
:102B7C0002EB8202910001F5A87129440431002373
:102B8C000B600222284600F076F834467CE7284693
:102B9C00FFF765FD344677E702F07F0202EB820215
:102BAC009100103129440431E9E75BB2002B1FDBA3
:102BBC0002F00F0000EB800005EB8000D0F858010C
:102BCC0020B3002B27DB02F07F0303EB83039C0075
:102BDC0004F5A8742C4404340AB1802A24D10023AF
:102BEC00236002222146284600F045F834464BE784
:102BFC0002F00F0000EB800005EB800080690028DC
:102C0C00DFD12846FFF72BFD34463DE72846FFF77A
:102C1C0026FD344638E702F07F0303EB83039C0068
:102C2C0010342C440434D7E711462846FDF76BFCCE
:102C3C0010B101232360D4E700232360D1E7C8B18E
:102C4C0070B50D4616460446FFF7E2FC0130400015
:102C5C003080287003236B70022307E001345A1C68
:102C6C00D2B2E8540233DBB20021A95420780028F8
:102C7C00F4D170BD704710B513460222C0F89422EF
:102C8C00C36103620A460021FDF758FC002010BD09
:102C9C0008B513460A460021FDF750FC002008BD7C
:102CAC0010B513460322C0F89422C0F85C31C0F86A
:102CBC0060310A460021FDF749FC002010BD08B523
:102CCC0013460A460021FDF741FC002008BD08B55B
:102CDC000423C0F8943200231A461946FDF72EFC43
:102CEC00002008BD08B50523C0F8943200231A460D
:102CFC001946FDF72BFC002008BD10B5D0F8B842E2
:102D0C00D0F8BC325BB194F80002FF2807D09B6866
:102D1C0094F8012221469847FF2384F800320020C2
:102D2C0010BD00004323038000487047A000002022
:102D3C004323038000487047E400002043230380B2
:102D4C0000487047340100200A2303800048704774
:102D5C002801002038B50446D0F8B852FDF7FEFB28
:102D6C00C5F80C02D4F8B8324BB1D4F8BC32DB68DD
:102D7C0005F50371D5F804029847002038BD0220F0
:102D8C00FCE738B5D0F8B822D0F8C042E2B101EB7C
:102D9C00810300EB8303DB693BB104EB4114A56BAE
:102DAC00B3FBF5F405FB143323B10023C2F8143242
:102DBC00002038BD01EB810300EB83030022DA61B4
:102DCC001346FDF7BBFBF3E70220F2E7F0B583B047
:102DDC0006460C46D0F8B87200238DF80730ADF8D3
:102DEC0004300B7813F0600527D0202D53D1CA88FE
:102DFC00DAB113F0800F0CD0D0F8BC329B68394696
:102E0C0060789847E28839463046FFF734FF002552
:102E1C0044E04B7887F800328B7987F80132CA8806
:102E2C003946FFF73DFF002538E0D0F8BC329B68EF
:102E3C00002248789847002530E04F780A2F14D0AC
:102E4C000B2F20D01FB1FFF70AFC022526E090F8CB
:102E5C009C32032B03D0FFF702FC02251EE002225A
:102E6C0001A9FFF708FF3D4618E090F89C32032BB0
:102E7C0003D0FFF7F4FB022510E001220DF107014E
:102E8C00FFF7F9FE0AE090F89C32032B06D0FFF70F
:102E9C00E6FB022502E0FFF7E2FB0225284603B021
:102EAC00F0BD38B504468121FDF715FB0025E56220
:102EBC0001212046FDF70FFBC4F86C5182212046FE
:102ECC00FDF709FB2564D4F8B8324BB1D4F8BC3209
:102EDC005B689847D4F8B802FDF74AFBC4F8B852BF
:102EEC00002038BD70B50446037CABBB4FF40073B7
:102EFC0002228121FDF7E4FA0125E5624FF400730B
:102F0C00022229462046FDF7DBFAC4F86C5108234F
:102F1C00032282212046FDF7D3FA012323644FF4C8
:102F2C000770FDF721FB0546C4F8B80268B3D4F866
:102F3C00BC321B6898470023C5F81432C5F8183208
:102F4C00267CCEB94FF40073D5F80422012120461B
:102F5C00FDF7FCFA304670BD402302228121FDF7BB
:102F6C00AFFA0125E5624023022229462046FDF7EF
:102F7C00A7FAC4F86C51CAE74023D5F80422012102
:102F8C002046FDF7E3FA0026E4E70126E2E719B153
:102F9C00C0F8BC120020704702207047D0F8B8323D
:102FAC00C3F80812C3F8102200207047D0F8B832CA
:102FBC00C3F8041200207047D0F8B822A2B108B5AB
:102FCC00D2F814320BB1012008BD0123C2F814321F
:102FDC00D2F810320363B2F81032D2F808228121F1
:102FEC00FDF7ACFA0020EFE702207047D0F8B822CA
:102FFC0092B108B5037C43B94FF40073D2F80422A4
:10300C000121FDF7A3FA002008BD4023D2F80422C9
:10301C000121FDF79BFAF6E702207047024B18607E
:10302C00024B1980704700BFC0030020BE03002074
:10303C00F0B130B40446104B1B68ABB10022104603
:10304C00914212DD0D4B1B880D4D2D88AB420CD2DD
:10305C00094D2D6845F82340084D2B8801332B80F2
:10306C00183401300132EBE7002080B230BC7047DD
:10307C00002080B2704700BFC0030020C4030020B2
:10308C00BE03002010B40A4B1C6864B10146002337
:10309C00084A12889A4208DD54F8230082888A4232
:1030AC0004D00133F4E7204600E0002010BC704748
:1030BC00C0030020C4030020437963F07F034371F5
:1030CC0081710223037170470378407803EB002071
:1030DC0080B270470378427803EB0223827803EBCB
:1030EC000243C07803EB006070470170090A41701D
:1030FC00704701700B0A43700B0C8370090EC17082
:10310C00704710B504464FF6FF72012100F064FAC7
:10311C0002460121601800F05FFA02460221601895
:10312C0000F05AFA02460121201D00F055FA024621
:10313C000121601D00F050FA2179012900D810BD41
:10314C0002460139A01D00F047FAF8E710B400243C
:10315C00C0F82C41C0F83031A0F83411A0F8362159
:10316C0080F84A4310BC70472DE9F84305460F46DA
:10317C00164600F59C790024A0461CE03B5CFA2B1B
:10318C0018D185F83831012385F8483312E03B5CBF
:10319C00CE2B03D0002385F848330BE085F839316A
:1031AC00022385F8483305E03B5CA5F83A3103234C
:1031BC0085F8483301342046B44272D295F848332E
:1031CC00082B6AD801A252F823F000BF89310008FD
:1031DC009B310008B5310008FD310008133200089E
:1031EC0021320008453200086B32000879320008A1
:1031FC003A5CB5F93A3143EA0223A5F83A31042393
:10320C0085F84833D6E73B5C85F83C31052385F8D7
:10321C004833CFE73B5C85F83D3195F83C31012BC9
:10322C0006D0062385F84833002385F84933C1E7D7
:10323C00072385F84833BDE795F84933395CEA181C
:10324C0082F83E110133DBB285F8493395F83C2105
:10325C00013A9342AEDB072385F84833AAE73B5C7F
:10326C00A5F83E32082385F84833A3E73A5CB5F954
:10327C003E3243EA0223A5F83E324846FFF741FFAF
:10328C00B5F83E32834203D0002385F8483391E7EA
:10329C004FF0010885F84A83F6E7002385F8483398
:1032AC0088E74046BDE8F8832DE9F04F85B090F8EB
:1032BC004A5375B1044600F5107600F59C71B0F8D0
:1032CC003A31B0F834219A4206D0B0F836219A42FD
:1032DC0002D005B0BDE8F08F4FF48472304600F098
:1032EC0081FB94F83D31013B102B00F26A81DFE841
:1032FC0013F011003E00820068016801680168014A
:10330C006801680168016801680168016801680169
:10331C00CA002801AD4B198804F24620FFF7E5FEE0
:10332C00032384F844323046FFF7EBFEA4F846033F
:10333C0094F8442295B2571D3A463146204600F087
:10334C0051FBB4F846330635E355B4F846331B0A43
:10335C00635594F844120731C4F82C11D4F8303169
:10336C000BB120469847002384F84A33B1E704F5A3
:10337C009F70FFF7A9FE0546944B1B88834235D9F5
:10338C00014604F24620FFF7B0FE914F3B6853F81C
:10339C002530998804F51270FFF7A7FE3B6853F8A7
:1033AC002530D98804F24A20FFF79FFE3B6853F87A
:1033BC002530198904F51370FFF797FE092384F85B
:1033CC0044323B6853F825301F683846FCF7B8FE8A
:1033DC000546F62801D97F4F0D25394604F24E20BB
:1033EC0000F00EFB093584F844529CE7022130466C
:1033FC00FFF762FE97E704F59F70FFF765FE07463F
:10340C0004F5A070FFF760FE05463846FFF73AFE5C
:10341C00804698B30389AB422BD9C36803EBC50331
:10342C00B3F80490394604F24620FFF75EFE2946B5
:10343C0004F51270FFF759FE494604F24A20FFF7D3
:10344C0054FE072384F84432D8F80C3053F8357006
:10345C003846FCF775FE0546F82801D95D4F0D2559
:10346C00394604F5137000F0CBFA073584F8445252
:10347C0059E703213046FFF71FFE54E7022130467F
:10348C00FFF71AFE4FE704F59F70FFF71DFE074686
:10349C0004F5A070FFF718FE804604F5A170FFF745
:1034AC0013FE82463846FFF7EDFD8346002843D0D5
:1034BC000097394604F24620FFF717FE414604F503
:1034CC001270FFF712FE072384F8443206274FF0E0
:1034DC0000090195009DC2451DDD09F101091FFA86
:1034EC0089F9DBF81030F3B103AA1FFA88F12846EA
:1034FC009847D0B904F51070384403990630FFF79B
:10350C00F8FD0437FFB294F84432043384F84432A3
:10351C0008F10108DFE7019D4DB1494604F24A204C
:10352C00FFF7E3FDFFE60025F6E70025F4E70321AE
:10353C003046FFF7C1FDF6E602213046FFF7BCFD31
:10354C00F1E604F59F70FFF7BFFD804604F5A0700F
:10355C00FFF7BAFD054604F5A170FFF7B5FD8146EE
:10356C004046FFF78FFD824630B3414604F24620B9
:10357C00FFF7BBFD294604F51270FFF7B6FD0027D7
:10358C00B94514DDB800831D04F59C701844063051
:10359C00FFF7A0FD0390DAF8143043B103AA2946D3
:1035AC004046984718B901370135ADB2E8E7032119
:1035BC003046FFF781FDB6E602213046FFF77CFD71
:1035CC00B1E605213046FFF777FDACE6C4030020D9
:1035DC00C0030020903A000810B4044610464A1E5E
:1035EC0051B114F8013B4340DBB2044931F81330BC
:1035FC0083EA10201146F2E710BC7047A03A00088D
:10360C0032B138B941B91268044B1A600846704798
:10361C00002070470220704703207047C803002029
:10362C00BAB138B504461546A8B9012909D0022902
:10363C000AD009B1032038BD084B1B68136008463B
:10364C00F9E701231360F6E7FEF762F928602046DC
:10365C00F1E7002070470220EDE700BFC80300200F
:10366C0008B502210348FFF7D9FC01210248FFF7F6
:10367C00DFFC08BD2C160020F03C0008012801D00E
:10368C000220704719B1012906D003207047054B61
:10369C001B68136008467047034B1B6813600020BF
:1036AC00704700BFCC03002078010020012801D016
:1036BC000220704719B1012906D003207047126807
:1036CC00044B1A60084670471268034B1A600020BE
:1036DC00704700BFCC0300207801002008B5012101
:1036EC000148FFF7A5FC08BD1C3D000808B50F4BB1
:1036FC001B68A3B9FEF70CF90D4B18600D4B1B683A
:10370C00984212D94FF400510B48FEF7B1FD084B0B
:10371C001B680A4A12681344064A136005E001222A
:10372C004FF400510448FEF79DFD08BDCC0300206A
:10373C00D0030020D40300200010014078010020A9
:10374C0082B00A4B9A6942F001029A619A6902F0BE
:10375C0001020092009ADA6942F08052DA61DB6968
:10376C0003F080530193019B02B07047001002409C
:10377C007047FEE7FEE7FEE7FEE7704770477047CD
:10378C0008B5FEF7B9F808BD08B50248FDF70BFA05
:10379C0008BD00BFBC1300200F4B1A6842F0010299
:1037AC001A6059680D4A0A405A601A6822F08472ED
:1037BC0022F480321A601A6822F480221A605A6845
:1037CC0022F4FE025A604FF41F029A60044B4FF031
:1037DC0000629A60704700BF001002400000FFF8C2
:1037EC0000ED00E0002103E00B4B5B58435004312B
:1037FC000A480B4B42189A42F6D30A4A02E00023BD
:10380C0042F8043B084B9A42F9D3FFF7C5FF00F08E
:10381C00C5F800F07CF870475C3D00080000002003
:10382C00800100208001002034160020FEE70000FB
:10383C0030B589B000240494059406940794184B71
:10384C009A6942F010029A619A6902F01002019290
:10385C00019A9A6942F020029A619A6902F0200258
:10386C000292029A9A6942F004029A619B6903F0EF
:10387C0004030393039B0B4D22464FF4005128463F
:10388C00FEF7F0FC4FF400530493012305930694C8
:10389C000223079304A92846FEF7D4FB09B030BDD8
:1038AC00001002400010014030B595B000240D947A
:1038BC000F94109405940694079408940994019419
:1038CC0002940394049401220A924FF480330B93D4
:1038DC000C940E920225119512934FF4E01313934E
:1038EC000AA8FEF731F80F230593069507944FF4B9
:1038FC00806308930994294605A8FEF763FA102300
:10390C000193049401A8FEF713FB15B030BD08B564
:10391C00FDF7E0FFFFF7C8FFFFF78AFFFCF718FC85
:10392C00FFF79EFE00F02EF8FFF7D8FE00F01AF815
:10393C00FFF7DCFEFAE7704710B50C4689B2FCF7CE
:10394C00EBFC204610BD000008B50A4601460348B2
:10395C00FFF70AFC024B187008BD00BFD80300200B
:10396C002407002008B5054B1B7803B908BD044893
:10397C00FFF79AFC014B00221A70F7E7240700208E
:10398C00D803002008B5034B012211460248FFF76B
:10399C00DDFB08BD45390008D803002070B50026B2
:1039AC000C4D0D4C641BA410A64209D100F030F84C
:1039BC0000260A4D0A4C641BA410A64205D170BD0A
:1039CC0055F8043B98470136EEE755F8043B984709
:1039DC000136F2E7543D0008543D0008543D000800
:1039EC00583D00080A44914200F1FF3300D1704762
:1039FC0010B511F8014B914203F8014FF9D110BDEC
:103A0C00034611F8012B03F8012B002AF9D170475A
:103A1C00F8B500BFF8BC08BC9E467047F8B500BFAF
:083A2C00F8BC08BC9E4670477F
:103A340053544D3332205669727475616C20436F50
:103A44006D506F727400000053544D6963726F655A
:103A54006C656374726F6E69637300004344432042
:103A6400436F6E666967000043444320496E746582
:103A74007266616365000000020304050607080915
:103A84000A0B0C0D0E0F101000000000546F6F2075
:103A94006C6F6E67206E616D650000000000C1C030
:103AA40081C1400101C3C003800241C201C6C006F6
:103AB400800741C70005C1C581C4400401CCC00CC6
:103AC400800D41CD000FC1CF81CE400E000AC1CA86
:103AD40081CB400B01C9C009800841C801D8C01876
:103AE400801941D9001BC1DB81DA401A001EC1DEF6
:103AF40081DF401F01DDC01D801C41DC0014C1D4E6
:103B040081D5401501D7C017801641D601D2C01205
:103B1400801341D30011C1D181D0401001F0C030D5
:103B2400803141F10033C1F381F240320036C1F6F5
:103B340081F7403701F5C035803441F4003CC1FCC5
:103B440081FD403D01FFC03F803E41FE01FAC03A85
:103B5400803B41FB0039C1F981F840380028C1E8B5
:103B640081E9402901EBC02B802A41EA01EEC02EF5
:103B7400802F41EF002DC1ED81EC402C01E4C024E5
:103B8400802541E50027C1E781E640260022C1E205
:103B940081E3402301E1C021802041E001A0C06015
:103BA400806141A10063C1A381A240620066C1A6F5
:103BB40081A7406701A5C065806441A4006CC1ACC5
:103BC40081AD406D01AFC06F806E41AE01AAC06A85
:103BD400806B41AB0069C1A981A840680078C1B875
:103BE40081B9407901BBC07B807A41BA01BEC07EF5
:103BF400807F41BF007DC1BD81BC407C01B4C074E5
:103C0400807541B50077C1B781B640760072C1B204
:103C140081B3407301B1C071807041B00050C19054
:103C2400819140510193C053805241920196C056F4
:103C3400805741970055C19581944054019CC05CC4
:103C4400805D419D005FC19F819E405E005AC19A84
:103C5400819B405B0199C059805841980188C048B4
:103C640080494189004BC18B818A404A004EC18EF4
:103C7400818F404F018DC04D804C418C0044C184E4
:103C8400818540450187C047804641860182C04204
:103C9400804341830041C18181804040426C75650D
:103CA40050696C6C000000004572726F7220636F83
:103CB40064650000446576696365206964000000FA
:103CC40055702074696D65202868683A6D6D3A7383
:103CD40073290000AC3C000845000000B83C000813
:103CE40012000000C43C000817000000A03C0008BB
:103CF4000000000003000000D83C00082D36000836
:103D04000D3600084C4544004D6F6465000000000A
:103D140044656C6179000000083D00080100000062
:103D240002000000343D000889360008B936000856
:103D34000C3D000822000000143D00082200000091
:103D44000000000000000000010203040607080947
:043D54003101000831
:043D58000D01000851
:103D5C00B1010008BD0100086D020008490200080D
:103D6C003502000889020008AD02000812010002A9
:103D7C0002020040830440570002010203010000CC
:103D8C00040309041A0300000000000000000000F6
:103D9C000000000000000000000000000000000017
:103DAC00FD020008D1020008D5020008D902000863
:103DBC000100000010000000F12E0008AF2E0008DA
:103DCC00D92D000800000000072D00088F2D0008D9
:103DDC00612D000800000000000000000000000041
:103DEC003D2D0008312D0008492D0008552D0008E7
:103DFC0009024300020100C0320904000001020262
:103E0C000100052400100105240100010424020214
:103E1C0005240600010705820308001009040100AF
:103E2C00020A00000007050102400000070581029C
:103E3C004000000009024300020100C032090400E6
:103E4C0000010202010005240010010524010001FB
:103E5C000424020205240600010705820308001051
:103E6C0009040100020A000000070501020002001B
:103E7C0007058102000200000A0600020000004053
:103E8C000100000009074300020104C032090400CC
:103E9C0000010202010005240010010524010001AB
:103EAC000424020205240600010705820308001001
:103EBC0009040100020A000000070501024000008D
:103ECC000705810240000000E80300000024F40014
:04000005080037F1C7
:00000001FF
